{
  "contractName": "Digital_Identity",
  "abi": [
    {
      "constant": true,
      "inputs": [],
      "name": "identityCount",
      "outputs": [
        {
          "name": "",
          "type": "uint256"
        }
      ],
      "payable": false,
      "stateMutability": "view",
      "type": "function",
      "signature": "0x38678ba5"
    },
    {
      "constant": true,
      "inputs": [
        {
          "name": "",
          "type": "uint256"
        }
      ],
      "name": "identities",
      "outputs": [
        {
          "name": "id",
          "type": "uint256"
        },
        {
          "name": "name",
          "type": "string"
        },
        {
          "name": "age",
          "type": "uint256"
        },
        {
          "name": "owner",
          "type": "address"
        },
        {
          "name": "verified",
          "type": "bool"
        }
      ],
      "payable": false,
      "stateMutability": "view",
      "type": "function",
      "signature": "0xeaaf77e6"
    },
    {
      "anonymous": false,
      "inputs": [
        {
          "indexed": false,
          "name": "id",
          "type": "uint256"
        },
        {
          "indexed": false,
          "name": "name",
          "type": "string"
        },
        {
          "indexed": false,
          "name": "age",
          "type": "uint256"
        },
        {
          "indexed": false,
          "name": "owner",
          "type": "address"
        },
        {
          "indexed": false,
          "name": "verified",
          "type": "bool"
        }
      ],
      "name": "IdCreated",
      "type": "event",
      "signature": "0x7c47a729b86442fb4aa8ff7b151a291861fb269862005d7f9a6443269372b51a"
    },
    {
      "anonymous": false,
      "inputs": [
        {
          "indexed": false,
          "name": "id",
          "type": "uint256"
        },
        {
          "indexed": false,
          "name": "name",
          "type": "string"
        },
        {
          "indexed": false,
          "name": "age",
          "type": "uint256"
        },
        {
          "indexed": false,
          "name": "owner",
          "type": "address"
        },
        {
          "indexed": false,
          "name": "verified",
          "type": "bool"
        }
      ],
      "name": "IdRetrieved",
      "type": "event",
      "signature": "0x75c4b1086a8574453a0a0b3f9c498df68c62ff0eb65282d3416a57d0fd1ac6b2"
    },
    {
      "constant": false,
      "inputs": [
        {
          "name": "_name",
          "type": "string"
        },
        {
          "name": "_age",
          "type": "uint256"
        }
      ],
      "name": "createIdentity",
      "outputs": [],
      "payable": false,
      "stateMutability": "nonpayable",
      "type": "function",
      "signature": "0xbc14e457"
    },
    {
      "constant": false,
      "inputs": [
        {
          "name": "_id",
          "type": "uint256"
        }
      ],
      "name": "retrieveIdentity",
      "outputs": [],
      "payable": false,
      "stateMutability": "nonpayable",
      "type": "function",
      "signature": "0x16c2db88"
    }
  ],
  "bytecode": "0x60806040526000805534801561001457600080fd5b50610a82806100246000396000f3fe608060405260043610610062576000357c0100000000000000000000000000000000000000000000000000000000900463ffffffff16806316c2db881461006757806338678ba5146100a2578063bc14e457146100cd578063eaaf77e61461019f575b600080fd5b34801561007357600080fd5b506100a06004803603602081101561008a57600080fd5b810190808035906020019092919050505061029f565b005b3480156100ae57600080fd5b506100b7610581565b6040518082815260200191505060405180910390f35b3480156100d957600080fd5b5061019d600480360360408110156100f057600080fd5b810190808035906020019064010000000081111561010d57600080fd5b82018360208201111561011f57600080fd5b8035906020019184600183028401116401000000008311171561014157600080fd5b91908080601f016020809104026020016040519081016040528093929190818152602001838380828437600081840152601f19601f82011690508083019250505050505050919291929080359060200190929190505050610587565b005b3480156101ab57600080fd5b506101d8600480360360208110156101c257600080fd5b810190808035906020019092919050505061086e565b60405180868152602001806020018581526020018473ffffffffffffffffffffffffffffffffffffffff1673ffffffffffffffffffffffffffffffffffffffff16815260200183151515158152602001828103825286818151815260200191508051906020019080838360005b83811015610260578082015181840152602081019050610245565b50505050905090810190601f16801561028d5780820380516001836020036101000a031916815260200191505b50965050505050505060405180910390f35b6102a7610969565b6001600083815260200190815260200160002060a0604051908101604052908160008201548152602001600182018054600181600116156101000203166002900480601f0160208091040260200160405190810160405280929190818152602001828054600181600116156101000203166002900480156103695780601f1061033e57610100808354040283529160200191610369565b820191906000526020600020905b81548152906001019060200180831161034c57829003601f168201915b50505050508152602001600282015481526020016003820160009054906101000a900473ffffffffffffffffffffffffffffffffffffffff1673ffffffffffffffffffffffffffffffffffffffff1673ffffffffffffffffffffffffffffffffffffffff1681526020016003820160149054906101000a900460ff1615151515815250509050600081600001511180156104095750600054816000015111155b151561047d576040517f08c379a00000000000000000000000000000000000000000000000000000000081526004018080602001828103825260128152602001807f496e76616c69642070726f64756374204944000000000000000000000000000081525060200191505060405180910390fd5b7f75c4b1086a8574453a0a0b3f9c498df68c62ff0eb65282d3416a57d0fd1ac6b28160000151826020015183604001518460600151856080015160405180868152602001806020018581526020018473ffffffffffffffffffffffffffffffffffffffff1673ffffffffffffffffffffffffffffffffffffffff16815260200183151515158152602001828103825286818151815260200191508051906020019080838360005b8381101561053f578082015181840152602081019050610524565b50505050905090810190601f16801561056c5780820380516001836020036101000a031916815260200191505b50965050505050505060405180910390a15050565b60005481565b60008251111515610600576040517f08c379a000000000000000000000000000000000000000000000000000000000815260040180806020018281038252600c8152602001807f496e76616c6964206e616d65000000000000000000000000000000000000000081525060200191505060405180910390fd5b600081111515610678576040517f08c379a000000000000000000000000000000000000000000000000000000000815260040180806020018281038252600b8152602001807f496e76616c69642061676500000000000000000000000000000000000000000081525060200191505060405180910390fd5b600080815480929190600101919050555060a06040519081016040528060005481526020018381526020018281526020013373ffffffffffffffffffffffffffffffffffffffff1681526020016001151581525060016000805481526020019081526020016000206000820151816000015560208201518160010190805190602001906107069291906109b1565b506040820151816002015560608201518160030160006101000a81548173ffffffffffffffffffffffffffffffffffffffff021916908373ffffffffffffffffffffffffffffffffffffffff16021790555060808201518160030160146101000a81548160ff0219169083151502179055509050507f7c47a729b86442fb4aa8ff7b151a291861fb269862005d7f9a6443269372b51a600054838333600160405180868152602001806020018581526020018473ffffffffffffffffffffffffffffffffffffffff1673ffffffffffffffffffffffffffffffffffffffff16815260200183151515158152602001828103825286818151815260200191508051906020019080838360005b8381101561082c578082015181840152602081019050610811565b50505050905090810190601f1680156108595780820380516001836020036101000a031916815260200191505b50965050505050505060405180910390a15050565b6001602052806000526040600020600091509050806000015490806001018054600181600116156101000203166002900480601f0160208091040260200160405190810160405280929190818152602001828054600181600116156101000203166002900480156109205780601f106108f557610100808354040283529160200191610920565b820191906000526020600020905b81548152906001019060200180831161090357829003601f168201915b5050505050908060020154908060030160009054906101000a900473ffffffffffffffffffffffffffffffffffffffff16908060030160149054906101000a900460ff16905085565b60a060405190810160405280600081526020016060815260200160008152602001600073ffffffffffffffffffffffffffffffffffffffff1681526020016000151581525090565b828054600181600116156101000203166002900490600052602060002090601f016020900481019282601f106109f257805160ff1916838001178555610a20565b82800160010185558215610a20579182015b82811115610a1f578251825591602001919060010190610a04565b5b509050610a2d9190610a31565b5090565b610a5391905b80821115610a4f576000816000905550600101610a37565b5090565b9056fea165627a7a72305820447d274ea672c2411cb9930d02521a7f6bc61fdb546c8f20b162f808978f50950029",
  "source": "pragma solidity ^0.5.0;\r\n\r\ncontract Digital_Identity {\r\n  uint public identityCount = 0;\r\n  mapping(uint => Identity) public identities;\r\n\r\n  struct Identity {\r\n    uint id;\r\n    string name;\r\n    uint age;\r\n    address owner;\r\n    bool verified;\r\n  }\r\n\r\n  event IdCreated(\r\n    uint id,\r\n    string name,\r\n    uint age,\r\n    address owner,\r\n    bool verified\r\n  );\r\n\r\n  event IdRetrieved(\r\n    uint id,\r\n    string name,\r\n    uint age,\r\n    address owner,\r\n    bool verified\r\n  );\r\n\r\n  function createIdentity(string memory _name, uint _age) public {\r\n    require(bytes(_name).length > 0, 'Invalid name');\r\n    require(_age > 0, 'Invalid age');\r\n    identityCount++;\r\n    identities[identityCount] = Identity(identityCount, _name, _age, msg.sender, true);\r\n    emit IdCreated(identityCount, _name, _age, msg.sender, true);\r\n  }\r\n\r\n  function retrieveIdentity(uint _id) public {\r\n    Identity memory _identity = identities[_id];\r\n    //address _owner = _identity.owner;\r\n    require(_identity.id > 0 && _identity.id <= identityCount, 'Invalid product ID');\r\n    emit IdRetrieved(_identity.id, _identity.name, _identity.age, _identity.owner, _identity.verified);\r\n  }\r\n}",
  "sourcePath": "D:/DApps/Identity/src/contracts/Digital_Identity.sol",
  "compiler": {
    "name": "solc",
    "version": "0.5.0+commit.1d4f565a.Emscripten.clang"
  },
  "schemaVersion": "3.0.2",
  "updatedAt": "2019-10-10T14:36:40.558Z",
  "devdoc": {
    "methods": {}
  },
  "userdoc": {
    "methods": {}
  }
}