{
  "contractName": "Digital_Identity",
  "abi": [
    {
      "constant": true,
      "inputs": [],
      "name": "name",
      "outputs": [
        {
          "name": "",
          "type": "string"
        }
      ],
      "payable": false,
      "stateMutability": "view",
      "type": "function",
      "signature": "0x06fdde03"
    },
    {
      "constant": true,
      "inputs": [],
      "name": "identityCount",
      "outputs": [
        {
          "name": "",
          "type": "uint256"
        }
      ],
      "payable": false,
      "stateMutability": "view",
      "type": "function",
      "signature": "0x38678ba5"
    },
    {
      "constant": true,
      "inputs": [
        {
          "name": "",
          "type": "uint256"
        }
      ],
      "name": "identities",
      "outputs": [
        {
          "name": "id",
          "type": "uint256"
        },
        {
          "name": "name",
          "type": "string"
        },
        {
          "name": "age",
          "type": "uint256"
        },
        {
          "name": "owner",
          "type": "address"
        },
        {
          "name": "verified",
          "type": "bool"
        }
      ],
      "payable": false,
      "stateMutability": "view",
      "type": "function",
      "signature": "0xeaaf77e6"
    },
    {
      "anonymous": false,
      "inputs": [
        {
          "indexed": false,
          "name": "id",
          "type": "uint256"
        },
        {
          "indexed": false,
          "name": "name",
          "type": "string"
        },
        {
          "indexed": false,
          "name": "age",
          "type": "uint256"
        },
        {
          "indexed": false,
          "name": "owner",
          "type": "address"
        },
        {
          "indexed": false,
          "name": "verified",
          "type": "bool"
        }
      ],
      "name": "IdCreated",
      "type": "event",
      "signature": "0x7c47a729b86442fb4aa8ff7b151a291861fb269862005d7f9a6443269372b51a"
    },
    {
      "anonymous": false,
      "inputs": [
        {
          "indexed": false,
          "name": "id",
          "type": "uint256"
        },
        {
          "indexed": false,
          "name": "name",
          "type": "string"
        },
        {
          "indexed": false,
          "name": "age",
          "type": "uint256"
        },
        {
          "indexed": false,
          "name": "owner",
          "type": "address"
        },
        {
          "indexed": false,
          "name": "verified",
          "type": "bool"
        }
      ],
      "name": "IdRetrieved",
      "type": "event",
      "signature": "0x75c4b1086a8574453a0a0b3f9c498df68c62ff0eb65282d3416a57d0fd1ac6b2"
    },
    {
      "constant": false,
      "inputs": [
        {
          "name": "_name",
          "type": "string"
        },
        {
          "name": "_age",
          "type": "uint256"
        }
      ],
      "name": "createIdentity",
      "outputs": [
        {
          "name": "",
          "type": "uint256"
        }
      ],
      "payable": false,
      "stateMutability": "nonpayable",
      "type": "function",
      "signature": "0xbc14e457"
    },
    {
      "constant": false,
      "inputs": [
        {
          "name": "_id",
          "type": "uint256"
        }
      ],
      "name": "retrieveIdentity",
      "outputs": [],
      "payable": false,
      "stateMutability": "nonpayable",
      "type": "function",
      "signature": "0x16c2db88"
    }
  ],
  "bytecode": "0x60806040526040805190810160405280601b81526020017f4469676974616c204964656e7469747920426c6f636b636861696e00000000008152506000908051906020019061004f929190610067565b50600060015534801561006157600080fd5b5061010c565b828054600181600116156101000203166002900490600052602060002090601f016020900481019282601f106100a857805160ff19168380011785556100d6565b828001600101855582156100d6579182015b828111156100d55782518255916020019190600101906100ba565b5b5090506100e391906100e7565b5090565b61010991905b808211156101055760008160009055506001016100ed565b5090565b90565b610bd18061011b6000396000f3fe60806040526004361061006d576000357c0100000000000000000000000000000000000000000000000000000000900463ffffffff16806306fdde031461007257806316c2db881461010257806338678ba51461013d578063bc14e45714610168578063eaaf77e61461024e575b600080fd5b34801561007e57600080fd5b5061008761034e565b6040518080602001828103825283818151815260200191508051906020019080838360005b838110156100c75780820151818401526020810190506100ac565b50505050905090810190601f1680156100f45780820380516001836020036101000a031916815260200191505b509250505060405180910390f35b34801561010e57600080fd5b5061013b6004803603602081101561012557600080fd5b81019080803590602001909291905050506103ec565b005b34801561014957600080fd5b506101526106c6565b6040518082815260200191505060405180910390f35b34801561017457600080fd5b506102386004803603604081101561018b57600080fd5b81019080803590602001906401000000008111156101a857600080fd5b8201836020820111156101ba57600080fd5b803590602001918460018302840111640100000000831117156101dc57600080fd5b91908080601f016020809104026020016040519081016040528093929190818152602001838380828437600081840152601f19601f820116905080830192505050505050509192919290803590602001909291905050506106cc565b6040518082815260200191505060405180910390f35b34801561025a57600080fd5b506102876004803603602081101561027157600080fd5b81019080803590602001909291905050506109bd565b60405180868152602001806020018581526020018473ffffffffffffffffffffffffffffffffffffffff1673ffffffffffffffffffffffffffffffffffffffff16815260200183151515158152602001828103825286818151815260200191508051906020019080838360005b8381101561030f5780820151818401526020810190506102f4565b50505050905090810190601f16801561033c5780820380516001836020036101000a031916815260200191505b50965050505050505060405180910390f35b60008054600181600116156101000203166002900480601f0160208091040260200160405190810160405280929190818152602001828054600181600116156101000203166002900480156103e45780601f106103b9576101008083540402835291602001916103e4565b820191906000526020600020905b8154815290600101906020018083116103c757829003601f168201915b505050505081565b6000811180156103fe57506001548111155b1515610472576040517f08c379a00000000000000000000000000000000000000000000000000000000081526004018080602001828103825260128152602001807f496e76616c69642070726f64756374204944000000000000000000000000000081525060200191505060405180910390fd5b61047a610ab8565b6002600083815260200190815260200160002060a0604051908101604052908160008201548152602001600182018054600181600116156101000203166002900480601f01602080910402602001604051908101604052809291908181526020018280546001816001161561010002031660029004801561053c5780601f106105115761010080835404028352916020019161053c565b820191906000526020600020905b81548152906001019060200180831161051f57829003601f168201915b50505050508152602001600282015481526020016003820160009054906101000a900473ffffffffffffffffffffffffffffffffffffffff1673ffffffffffffffffffffffffffffffffffffffff1673ffffffffffffffffffffffffffffffffffffffff1681526020016003820160149054906101000a900460ff16151515158152505090507f75c4b1086a8574453a0a0b3f9c498df68c62ff0eb65282d3416a57d0fd1ac6b28160000151826020015183604001518460600151856080015160405180868152602001806020018581526020018473ffffffffffffffffffffffffffffffffffffffff1673ffffffffffffffffffffffffffffffffffffffff16815260200183151515158152602001828103825286818151815260200191508051906020019080838360005b83811015610684578082015181840152602081019050610669565b50505050905090810190601f1680156106b15780820380516001836020036101000a031916815260200191505b50965050505050505060405180910390a15050565b60015481565b6000808351111515610746576040517f08c379a000000000000000000000000000000000000000000000000000000000815260040180806020018281038252600c8152602001807f496e76616c6964206e616d65000000000000000000000000000000000000000081525060200191505060405180910390fd5b6000821115156107be576040517f08c379a000000000000000000000000000000000000000000000000000000000815260040180806020018281038252600b8152602001807f496e76616c69642061676500000000000000000000000000000000000000000081525060200191505060405180910390fd5b60016000815480929190600101919050555060a06040519081016040528060015481526020018481526020018381526020013373ffffffffffffffffffffffffffffffffffffffff1681526020016001151581525060026000600154815260200190815260200160002060008201518160000155602082015181600101908051906020019061084e929190610b00565b506040820151816002015560608201518160030160006101000a81548173ffffffffffffffffffffffffffffffffffffffff021916908373ffffffffffffffffffffffffffffffffffffffff16021790555060808201518160030160146101000a81548160ff0219169083151502179055509050507f7c47a729b86442fb4aa8ff7b151a291861fb269862005d7f9a6443269372b51a600154848433600160405180868152602001806020018581526020018473ffffffffffffffffffffffffffffffffffffffff1673ffffffffffffffffffffffffffffffffffffffff16815260200183151515158152602001828103825286818151815260200191508051906020019080838360005b83811015610974578082015181840152602081019050610959565b50505050905090810190601f1680156109a15780820380516001836020036101000a031916815260200191505b50965050505050505060405180910390a1600154905092915050565b6002602052806000526040600020600091509050806000015490806001018054600181600116156101000203166002900480601f016020809104026020016040519081016040528092919081815260200182805460018160011615610100020316600290048015610a6f5780601f10610a4457610100808354040283529160200191610a6f565b820191906000526020600020905b815481529060010190602001808311610a5257829003601f168201915b5050505050908060020154908060030160009054906101000a900473ffffffffffffffffffffffffffffffffffffffff16908060030160149054906101000a900460ff16905085565b60a060405190810160405280600081526020016060815260200160008152602001600073ffffffffffffffffffffffffffffffffffffffff1681526020016000151581525090565b828054600181600116156101000203166002900490600052602060002090601f016020900481019282601f10610b4157805160ff1916838001178555610b6f565b82800160010185558215610b6f579182015b82811115610b6e578251825591602001919060010190610b53565b5b509050610b7c9190610b80565b5090565b610ba291905b80821115610b9e576000816000905550600101610b86565b5090565b9056fea165627a7a72305820bd44a3b8adc62245fdf0de60d7073ea31f2ddfbab28d590792f9a8c5bc4ce7490029",
  "source": "pragma solidity ^0.5.0;\n\ncontract Digital_Identity {\n  string public name = \"Digital Identity Blockchain\";\n  uint public identityCount = 0;\n  mapping(uint => Identity) public identities;\n\n  struct Identity {\n    uint id;\n    string name;\n    uint age;\n    address owner;\n    bool verified;\n  }\n\n  event IdCreated(\n    uint id,\n    string name,\n    uint age,\n    address owner,\n    bool verified\n  );\n\n  event IdRetrieved(\n    uint id,\n    string name,\n    uint age,\n    address owner,\n    bool verified\n  );\n\n  function createIdentity(string memory _name, uint _age) public returns(uint) {\n    require(bytes(_name).length > 0, 'Invalid name');\n    require(_age > 0, 'Invalid age');\n    identityCount++;\n    identities[identityCount] = Identity(identityCount, _name, _age, msg.sender, true);\n    emit IdCreated(identityCount, _name, _age, msg.sender, true);\n    return identityCount;\n  }\n\n  function retrieveIdentity(uint _id) public {\n    require(_id > 0 && _id <= identityCount, 'Invalid product ID');\n    Identity memory _identity = identities[_id];\n    emit IdRetrieved(_identity.id, _identity.name, _identity.age, _identity.owner, _identity.verified);\n  }\n}",
  "sourcePath": "/home/saksham/Minor/src/contracts/Digital_Identity.sol",
  "compiler": {
    "name": "solc",
    "version": "0.5.0+commit.1d4f565a.Emscripten.clang"
  },
  "schemaVersion": "3.0.2",
  "updatedAt": "2019-10-27T10:31:32.228Z",
  "devdoc": {
    "methods": {}
  },
  "userdoc": {
    "methods": {}
  }
}